:100000000C945E000C9486000C9486000C94860080
:100010000C9486000C9486000C9486000C944F017E
:100020000C9486000C9486000C9486000C94D101EC
:100030000C9486000C9486000C9486000C94860028
:100040000C9405010C9486000C9486000C94860098
:100050000C9486000C9486000C9486000C94860008
:100060000C9486000C9486000200000000240027F7
:10007000002A0000000000250028002B00040404D2
:100080000404040404020202020202030303030341
:10009000030102040810204080010204081020011E
:1000A0000204081020000000080002010000030400
:1000B000070000000000000000005A0411241FBEC9
:1000C000CFEFD8E0DEBFCDBF11E0A0E0B1E0E8E3C4
:1000D000F9E002C005900D92A230B107D9F722E0F5
:1000E000A2E0B1E001C01D92A032B207E1F710E03A
:1000F000CEE5D0E004C02197FE010E949404CD35E6
:10010000D107C9F70E948D020C949A040C94000048
:1001100090E0FC01EB55FF4F2491FC01EF56FF4F9F
:100120003491FC01E358FF4FE491EE23C9F0222300
:1001300039F0233001F1A8F4213019F1223029F1EE
:10014000F0E0EE0FFF1FED58FF4FA591B4918FB770
:10015000F894EC91611126C030953E233C938FBFFB
:1001600008952730A9F02830C9F0243049F780914C
:1001700080008F7D03C0809180008F778093800006
:10018000DFCF84B58F7784BDDBCF84B58F7DFBCF88
:100190008091B0008F778093B000D2CF8091B00073
:1001A0008F7DF9CF3E2BDACFCF93DF9390E0FC0128
:1001B000EF56FF4F249183589F4FFC018491882371
:1001C000D1F090E0880F991FFC01E759FF4FA591EE
:1001D000B491FC01ED58FF4FC591D491623071F498
:1001E0009FB7F8943C91822F809583238C93E8816C
:1001F0002E2B28839FBFDF91CF9108958FB7F8945E
:10020000EC912E2B2C938FBFF6CF1F920F920FB62F
:100210000F9211242F933F938F939F93AF93BF938C
:1002200080911C0290911D02A0911E02B0911F02AC
:1002300030911B0223E0230F2D3758F50196A11DA5
:10024000B11D20931B0280931C0290931D02A0936A
:100250001E02B0931F028091170290911802A09184
:100260001902B0911A020196A11DB11D80931702C7
:1002700090931802A0931902B0931A02BF91AF9104
:100280009F918F913F912F910F900FBE0F901F90D4
:10029000189526E8230F0296A11DB11DD2CF1F92FB
:1002A0000F920FB60F9211242F933F934F935F93AA
:1002B0006F937F938F939F93AF93BF93EF93FF932E
:1002C00080910B0290910C02A0910D02B0910E0250
:1002D000892B8A2B8B2BD1F190910602E09107029A
:1002E000F091080280818927808380910B02909190
:1002F0000C02A0910D02B0910E02181619061A06F2
:100300001B069CF480910B0290910C02A0910D02AF
:10031000B0910E020197A109B10980930B0290934D
:100320000C02A0930D02B0930E02FF91EF91BF91CA
:10033000AF919F918F917F916F915F914F913F917D
:100340002F910F900FBE0F901F9018958091000174
:10035000E8E6F0E0E4919FEF90930001E13051F086
:1003600030F0E23069F060E00E948800DECF109249
:100370006E00F9CF90916F009D7F90936F00F3CF47
:10038000909170009D7F9093700091E09093B000E9
:100390009091B100987F94609093B1001092B30057
:1003A000E2CF1F920F920FB60F9211242F933F931B
:1003B0004F935F936F937F938F939F93AF93BF936D
:1003C000CF93DF93EF93FF9380910301C0910201DC
:1003D000D0E087FF24C010928500109284008091A5
:1003E00003018F5F8093030180910301082E000CAD
:1003F000990B8C179D0724F4809103018C30C4F174
:100400008091840090918500049680349C4908F482
:100410007AC08091840090918500049676C0809186
:100420000301082E000C990B8C179D07C4F6E09170
:1004300003018E2FEE0F990BFC01EE0FFF1FE80F4B
:10044000F91FEC5FFE4F808186FFC9CFE091030169
:100450008E2FEE0F990BFC01EE0FFF1FE80FF91F17
:10046000EC5FFE4F808160E08F730E948800B7CF01
:100470002091840030918500E09103018E2FEE0FD2
:10048000990BFC01EE0FFF1FE80FF91FEC5FFE4F09
:1004900081819281820F931F9093890080938800BD
:1004A000E09103018E2FEE0F990BFC01EE0FFF1F61
:1004B000E80FF91FEC5FFE4F808186FF11C0E091CD
:1004C00003018E2FEE0F990BFC01EE0FFF1FE80FBB
:1004D000F91FEC5FFE4F808161E08F730E948800FE
:1004E000FF91EF91DF91CF91BF91AF919F918F914C
:1004F0007F916F915F914F913F912F910F900FBE20
:100500000F901F90189580E49CE990938900809348
:1005100088008FEF80930301E3CF789484B58260E5
:1005200084BD84B5816084BD85B5826085BD85B597
:10053000816085BD80916E00816080936E00109215
:100540008100809181008260809381008091810090
:100550008160809381008091800081608093800021
:100560008091B10084608093B1008091B00081607F
:100570008093B00080917A00846080937A008091AB
:100580007A00826080937A0080917A008160809303
:100590007A0080917A00806880937A001092C1007E
:1005A00061E08AE00E94D40061E08CE00E94D40007
:1005B000809128018C3008F051C061E08BE00E94EE
:1005C000D40080912801282F30E0F901EE0FFF1FA1
:1005D000E20FF31FEC5FFE4F9081907C9B60908355
:1005E0001092290110922A012CE0622F0E948804A7
:1005F000829FB001112430E020E0AB01420F531F75
:10060000FA01EE0FFF1FE40FF51FEC5FFE4F908124
:1006100096FD16C02F5F3F4F2C30310571F78111C9
:100620000FC01092800082E08093810010928500BC
:1006300010928400B19A80916F00826080936F0065
:10064000E09128018E2F90E0FC01EE0FFF1FE80FD4
:10065000F91FEC5FFE4F80818064808362E08DE053
:100660000E94D40062E080E00E94D40062E084E056
:100670000E94D40062E085E00E94D40062E086E03F
:100680000E94D40062E081E00E94D40062E088E031
:100690000E94D40062E089E00E94D40062E08EE013
:1006A0000E94D40062E08FE00E94D40062E080E10A
:1006B0000E94D40062E081E10E94D40062E082E105
:1006C0000E94D40010922E0110922D0181E080939F
:1006D000390188E090E090933601809335013FEB3B
:1006E000C32E3BE3D32E48E6E42E40E0F42E57E839
:1006F000452E50E0552E0BE910E060E0662E60E0DC
:10070000762E7BE0872E72E0972EA12CB12C809163
:1007100000018A30B1F4F701C491C7FDADC061E0BA
:100720008AE00E94D400CC2309F479C0C23009F0D9
:100730008AC08091B100887F84608093B1008EEE82
:10074000A9C08F3F09F098C08AE080930001F701AB
:10075000C491CF3F09F490C0C13019F150F0C230BC
:1007600009F43CC0C7FD88C061E08AE00E94D40063
:10077000DDCF14BC15BC84B5826084BD85B58160B5
:1007800085BDF2018491E82FF0E0EE0FFF1FED58D8
:10079000FF4F85919491F801849180930A02C0E003
:1007A000BECF1092800010928100809181008860FD
:1007B0008093810080918100816080938100F201AB
:1007C0008491E82FF0E0EE0FFF1FED58FF4F859169
:1007D0009491F801849180930902A1CF1092B00006
:1007E0001092B1008091B00082608093B00080913F
:1007F000B10081608093B100F2018491E82FF0E0B4
:10080000EE0FFF1FED58FF4F8591949190930802D2
:1008100080930702F80184918093060280CF85B50A
:10082000887F836085BD8EEE87BD80921302909293
:100830001402A0921502B092160280916E0082609E
:1008400080936E0019C0C130F1F480918100887FDF
:10085000816080938100D0928900C092880080924C
:100860000F0290921002A0921102B0921202809197
:100870006F00826080936F006114710409F447CFA8
:100880000E94000044CFC23021F0C111F5CF8FEBA0
:10089000CBCF8FEB8093B30080920B0290920C022F
:1008A000A0920D02B0920E0280917000826080933F
:1008B0007000E2CF809102018C3030F591E0980F0A
:1008C000909302018093280190E0FC01EE0FFF1F3E
:1008D000E80FF91FEC5FFE4F88EB9BE0928381836A
:1008E0008BEDEBE2F1E0DF011D928A95E9F785E0FF
:1008F00090E090933B0180933A0186E090E09093E2
:100900003D0180933C0108958FEF80932801E8CF4B
:10091000991B79E004C0991F961708F0961B881F51
:100920007A95C9F780950895EE0FFF1F0590F49111
:08093000E02D0994F894FFCFBB
:02093800FF00BE
:00000001FF
